:020000040800F2
:10000000000B00208901000847110008010E0008BC
:1000100045110008E3020008791300080000000001
:100020000000000000000000000000006312000853
:10003000E502000800000000611200081513000826
:10004000A3010008A3010008A3010008A301000800
:10005000A3010008A3010008A3010008A3010008F0
:10006000A3010008A3010008A3010008A3010008E0
:10007000A3010008A3010008A3010008A3010008D0
:10008000A3010008A3010008A3010008A3010008C0
:10009000A3010008A3010008A3010008A3010008B0
:1000A000A3010008A3010008A3010008A3010008A0
:1000B000A3010008A3010008A3010008A301000890
:1000C000A3010008A3010008A3010008A301000880
:1000D000A3010008A3010008A3010008A301000870
:1000E000A3010008A3010008A301000800F002F822
:1000F00000F03AF80AA090E8000C82448344AAF188
:100100000107DA4501D100F02FF8AFF2090EBAE885
:100110000F0013F0010F18BFFB1A43F0010318473B
:10012000EC4E00000C4F0000103A24BF78C878C194
:10013000FAD8520724BF30C830C144BF04680C60ED
:10014000704700000023002400250026103A28BF35
:1001500078C1FBD8520728BF30C148BF0B60704739
:100160001FB51FBD10B510BD00F082F81146FFF796
:10017000F7FF01F012F900F0A0F803B4FFF7F2FF67
:1001800003BC00F0A7F80000094880470948004771
:10019000FEE7FEE7FEE7FEE7FEE7FEE7FEE7FEE737
:1001A000FEE7FEE704480549054A064B7047000094
:1001B00077130008ED00000800050020000B002068
:1001C000000700200007002002F0FF0343EA03229B
:1001D00042EA024200F02CB84FF0000200B513468C
:1001E00094469646203922BFA0E80C50A0E80C5057
:1001F000B1F12001BFF4F7AF090728BFA0E80C5008
:1002000048BF0CC05DF804EB890028BF40F8042B00
:1002100008BF704748BF20F8022B11F0804F18BF6D
:1002200000F8012B70477047704770474FF000028D
:100230000429C0F0128010F0030C3FF4CFAFCCF1D2
:10024000040CBCF1020F18BF00F8012BA8BF20F866
:10025000022BA1EB0C01FFF7C1BF5FEAC17C24BFF9
:1002600000F8012B00F8012B48BF00F8012B704764
:10027000754600F02BF8AE4605006946534620F05F
:100280000700854618B020B5FFF78CFFBDE8204079
:100290004FF000064FF000074FF000084FF0000B42
:1002A00021F00701AC46ACE8C009ACE8C009ACE8F5
:1002B000C009ACE8C0098D46704710B50446AFF3DD
:1002C00000802046BDE81040FFF757BF0048704748
:1002D000A004002001491820ABBEFEE72600020062
:1002E0007047FEE7704772B6FEE7000070B504463F
:1002F00000F0FEF80546601C02D004480078044473
:1003000000F0F6F8401BA042FAD370BD00000020B8
:100310002DE9F84FDFF8B8910024A9F1040B23462A
:100320000F2709F1040AABF1040EC9E00125A5402D
:100330002A40AA427DD1674ED1F804C0ACEB060832
:10034000B44532D014DCBCF1030F3AD009DCBCF167
:10035000000F2AD0BCF1010F1CD0BCF1020F31D12B
:100360001DE0BCF1110F17D0BCF1120F2AD119E01A
:10037000B8F5881F19D006DCB8F5803F15D0B8F560
:10038000801F1FD111E0B8F5001F0ED0B8F5041F73
:1003900018D10AE0CB6815E0CB681B1D12E0CB68D2
:1003A00008330FE0CB680C330CE08B682BB1012BCA
:1003B0004FF0080303D0456104E0042302E0056127
:1003C00000E00023FF2A01D8064601E000F1040600
:1003D0004FEA840501D9A5F12005D6F8008007FA77
:1003E00005FC28EA0C0803FA05F548EA0508C6F8F2
:1003F00000804D68ED0062D5374DAE6946F00106CC
:10040000AE61AD6924F0030605F001050095334D9A
:1004100006EB050CDCF80850A607360F07FA06F8BD
:1004200025EA0805DFF8B880404503D14FF0000801
:1004300017E044E0DFF8AC80404502D14FF00108FE
:100440000FE0DFF8A480404502D14FF0020808E039
:10045000DFF89880404502D14FF0030801E04FF0EB
:10046000040808FA06F848EA0508CCF808804D6840
:10047000D9F80060ED024D4601D5164300E09643E1
:100480002E604D68DAF80060AD02554601D516437E
:1004900000E096432E604D68DBF80060AD035D46DA
:1004A00001D5164300E096432E604D68DEF80060EB
:1004B000ED03754601D5164300E096432E60641C9B
:1004C0000D682A46E5407FF431AFBDE8F88F0000A3
:1004D000080401400000111000100240000001401B
:1004E00000080140000C01400010014000140140D0
:1004F00001488068704700000000002070B50400CB
:1005000025D094F83D00002520B984F83C502046C1
:1005100000F04EF9242084F83D002068016821F0A5
:10052000010101602068016841F400410160206818
:10053000016821F40041016000F088FA4D4A6168C9
:10054000914201D84C4900E04C49884201D2012037
:1005500070BD4B492368B0FBF1F15E6826F03F06A1
:100560000E435E606368934206D94FF49673594315
:100570004FF47A73B1FBF3F12368491C1E6A26F02D
:100580003F06314319626168914210D84900401E0C
:10059000B0FBF1F2521CC2F30B02042A01D2042078
:1005A00022E0B0FBF1F0401CC0F30B001CE0A2689D
:1005B000F2B301EBC10303EB0116431EB3FBF6F3E9
:1005C0005B1C43F480431B0549D092B301EBC1028D
:1005D00002EB0111401EB0FBF1F0401CC0F30B0018
:1005E00040F4804040F400402168CA694CF6FF7333
:1005F0009A431043C861D4E9071001432068026898
:1006000022F0C00211430160D4E9030101432068D4
:10061000826848F2FF339A4311438160D4E90501AF
:1006200008432168CA6822F0FF021043C86001E055
:100630000EE016E02068016841F0010101602564C8
:10064000202084F83D00256384F83E50002070BDD2
:1006500001EB4106431EB3FBF6F35B1CB3E701203D
:10066000C2E701EB4101401EB0FBF1F0401CC0F3BA
:100670000B00B7E7A086010080841E0000093D0042
:1006800040420F002DE9F84F1F4690468A46044627
:10069000DDF82890FFF72CFF054694F83D00202850
:1006A0007FD11923012240492046009500F03AFCF1
:1006B000002876D194F83C00012872D0012084F8FB
:1006C0003C0020680168C90703D1016841F00101BD
:1006D00001602068016821F400610160212084F834
:1006E0003D00102084F83E0000262664C4F82480D3
:1006F0006785608D20852D48E0622B464A4651462D
:10070000204600F095FB90B920684169806900900F
:1007100036E02A464946204600F0AAFC50B1206C3B
:10072000042804D12068016841F4007101600120AF
:10073000BDE8F88F606A216800780861606A401C33
:100740006062618D491E6185218D491E89B22185B6
:1007500022685369DB435B070BD451B10078106109
:10076000606A401C6062608D401E6085208D401E66
:1007700020852A464946204600F0A8FB0028CED115
:10078000208D0028C5D154F83D0B016841F400715B
:100790000160202004F81E09E67766770020C7E78D
:1007A000FFE70220C4E70000020010000000FFFF86
:1007B00010B586B00021009101910291039100686B
:1007C0000F4988421AD10F4CA06940F00800A0617F
:1007D000A069694600F008000490C0200090122033
:1007E0000190032003900848FFF792FDE06940F470
:1007F0000010E061E06900F40010049006B010BD44
:100800000054004000100240000C01400248816882
:10081000027811448160704700000020074810B53D
:10082000016841F010010160032000F067F80F201B
:1008300000F006F800F024F8002010BD002002406F
:1008400070B50D4D04464FF47A712878B1FBF0F085
:100850000A490968B1FBF0F000F0BEFA48B9102C63
:1008600007D200222146501E00F028F800206C60BC
:1008700070BD012070BD0000000000200C000020B1
:100880000C4808B5816941F001018161816901F07D
:1008900001010091C16941F08051C161C06900F05E
:1008A000805000900448416821F0E06141F00071FF
:1008B000416008BD0010024000000140F0B40E4B42
:1008C0001B680C46C3F30223C3F10705042D00D9AE
:1008D0000425191D072901D2002300E0DB1E012693
:1008E00006FA05F1491E214099409E40761E1640A9
:1008F0003143F0BC00F041BD0CED00E0064900F0D2
:10090000070208684FF6FF03184040EA0220034A36
:1009100010430860704700000CED00E00000FA058D
:100920002DE9F0470F46050061D0434E306800F0D6
:100930000700B84209D2306820F007003843306021
:10094000306800F00700B84251D128683B4C81075D
:1009500012D5400703D5606840F4E06060602878F5
:10096000000703D5606840F4605060606068A96863
:1009700020F0F000084360602878C00728D068683D
:10098000012810D02168022810D0890700292EDA0A
:10099000616821F0030101436160FFF7A9FD804612
:1009A00041F288390DE021688903EFE78901EDE71D
:1009B000FFF79EFDA0EB0801494502D90320BDE8E1
:1009C000F0876068696800F00C00B0EB810FEFD130
:1009D000306800F00700B8420BD9306820F00700FB
:1009E00038433060306800F00700B84201D0012081
:1009F000E5E72878400705D56068E96820F4E060FD
:100A0000084360602878000706D56068296920F4EB
:100A1000605040EAC100606000F028F86168084A50
:100A2000C1F30311515CC8400649086006480068DC
:100A3000FFF706FF0020C2E700200240001002403E
:100A4000F21300080C0000200400002004480549AF
:100A500000684968044AC1F30221515CC8407047EC
:100A60000C00002000100240021400080E4A5168D9
:100A70000E4801F00C03042B11D0082B0FD10C48A9
:100A8000C1F38343C903C05C0AD55168084AC1F366
:100A90004041921E515C054A5043B0FBF1F0704753
:100AA00004494843704700000010024000127A00D9
:100AB000E213000800093D002DE9F84F040070D052
:100AC0002078C04DC00749D06868C0F38100012874
:100AD00007D06868C0F38100022809D16868C003A4
:100AE00006D52868800339D560680028E7D035E04E
:100AF0006068B0F5803F0BD010B1B0F5A02F11D0D9
:100B0000286820F480302860286820F4802002E0E3
:100B1000286840F480302860606890B1FFF7E8FCF6
:100B200006460AE0286840F480202860F0E700BF0D
:100B3000FFF7DEFC801B642873D828688003F7D594
:100B40000CE0FFF7D5FC064605E000BFFFF7D0FC40
:100B5000801B6428F0D828688003F7D420789A4E48
:100B600080074FF001094FF0000839D5686810F090
:100B70000C0F07D06868C0F38100022809D16868AB
:100B8000C00306D42868800714D52069012808D13D
:100B900010E02069B0B1C6F80090FFF7A9FC074645
:100BA00005E00AE1FFF7A4FCC01B0228C4D82868AE
:100BB0008007F7D52868616920F0F80040EAC10095
:100BC00028600DE0C6F80080FFF792FC074604E0BD
:100BD000FFF78EFCC01B022823D828688007F7D4B3
:100BE000207800072CD57948A169D9B1C0F80090C8
:100BF000FFF77EFC074604E0FFF77AFCC01B0228E3
:100C00000FD8686A8007F7D571484FF4FA51006829
:100C1000B0FBF1F0009000BF0098411E0091FAD2A5
:100C20000EE080E0C0F80080FFF762FC074604E0B9
:100C3000FFF75EFCC01B022875D8686A8007F7D4EE
:100C40002078400760D5E8690027C00008D4E8692B
:100C500040F08050E861E869012700F08050009082
:100C60005C480168C90513D40168834641F480716A
:100C70000160FFF73DFC824606E000BFFFF738FC4D
:100C8000A0EB0A0064284ED8DBF80000C005F5D5BB
:100C9000E06801280AD008B1052813D0286A20F09E
:100CA00001002862286A20F0040002E0286A40F06F
:100CB00001002862E06841F2883B98B1FFF718FC18
:100CC00082460BE0286A40F004002862EEE700BF8D
:100CD000FFF70EFCA0EB0A0159455AD8286A800795
:100CE000F6D50CE0FFF704FC824605E0FFF700FCB8
:100CF000A0EB0A0159454CD8286A8007F6D41FB1E9
:100D0000E86920F08050E861E06988B36968C1F360
:100D10008101022944D00228C6F8608004D0FFF780
:100D2000E7FB044638E034E0FFF7E2FB074604E067
:100D3000FFF7DEFBC01B02282BD828688001F7D400
:100D4000206AB0F5803F05D16868A16820F40030C2
:100D500008436860D4E908010843696821F4741104
:100D600008436860C6F86090FFF7C2FB044606E0DF
:100D700025E000BFFFF7BCFB001B022809D828684C
:100D80008001F7D51BE000BFFFF7B2FB001B022874
:100D900002D90320BDE8F88F28688001F4D40EE062
:100DA0000128F7D06868226A00F48031914204D1AA
:100DB000616A00F47010884201D00120EAE7002047
:100DC000E8E7000000100240000042428004424276
:100DD0000C0000200070004010B5401EB0F1807F74
:100DE00001D3012010BD4FF0E02460610F21601796
:100DF00000F0C3FA0020A06107202061002010BD90
:100E0000FEE701684A69D24352050FD46FF480624D
:100E10004A61002140F8301F202242738173026929
:100E200042F0040202610173012070470020704704
:100E3000F8B50446C06A1E460D461746082807D076
:100E4000012805D010F5803F02D0206B122804D174
:100E50002068016841F480710160134600224FF060
:100E600001112046009600F05DF840B1206800684E
:100E7000C00502D54FF4007020640320F8BD20693E
:100E8000B0F5804F0ED00620216800EAD51040F062
:100E9000F000086133463A460B49204600F08AF8D4
:100EA00078B902E005F0FE0000E0E8B221680861D0
:100EB000054933463A46891F204600F07BF8002852
:100EC000DCD00120F8BD00000800010070B5164616
:100ED0000D4604461EE02046FFF793FF08B10120AF
:100EE00070BD681C16D0FFF703FB801BA84200D81A
:100EF00085B920684069C04340070BD5002044F8FD
:100F0000300F20216173A073216941F0200121611C
:100F10002073E4E720684069C0434007DBD4002029
:100F200070BD00002DE9F047984617460D4604466F
:100F3000C1F30746DDF820902AE000BFB8F1FF3F7B
:100F400026D0FFF7D5FAA0EB0901414502D8B8F148
:100F5000000F1DD12068012E16D0806925EA0000FF
:100F60000004000C12D00020B84211D1002044F837
:100F7000300F20216173A073216941F020012161AC
:100F800020730120BDE8F0874069E7E70120EBE727
:100F90002068012E0AD0806925EA00000004000CB8
:100FA00006D00020B842C9D00020EBE74069F3E743
:100FB0000120F7E72DE9F047984616460D4604460E
:100FC0004FF000094FF0200AC1F3074723E02068E3
:100FD0004069C043400515D42068016841F40071A0
:100FE000016021686FF480604861C4F8309084F833
:100FF0003DA084F83E90216C41F00401216484F806
:101000003C9021E0701C06D0FFF772FAA0EB0800BC
:10101000B04203D816B1012F1FD021E02068012F64
:1010200015D0806925EA00000004000C18D000BF2C
:1010300044F8309F84F80DA084F80E90216941F0A7
:101040002001216184F80C900120BDE8F0874069FF
:1010500025EA00000004000CEAD12068406901E0A4
:101060002068806925EA00000004000CAFD1ECE79D
:1010700070B516460D4604461EE02046FFF7C1FE39
:1010800008B1012070BD681C16D0FFF731FA801B33
:10109000A84200D885B920684069C04300060BD536
:1010A000002044F8300F20216173A073216941F0C2
:1010B000200121612073E4E720684069C0430006F5
:1010C000DBD4002070BD00000D4808B5816941F0F7
:1010D00020018161816901F020010091816941F065
:1010E00004018161816901F004010091816941F08D
:1010F00008018161806900F00800009008BD0000CF
:10110000001002400D4810B50B4901600C494160C8
:1011100000214FF480428160C0E903124161816186
:10112000C1610162FFF7EAF9002803D0BDE8104071
:10113000FFF7D9B810BD0000005400404C0000205B
:10114000801A0600FEE7FEE710B5002000F052F816
:10115000BDE8104000F056B810B5AE2000F02EF9F2
:10116000D52000F02BF9502000F028F9A82000F03D
:1011700025F93F2000F022F9D32000F01FF90020CC
:1011800000F01CF9402000F019F98D2000F016F94C
:10119000142000F013F9202000F010F9022000F0D4
:1011A0000DF9A12000F00AF9C02000F007F9DA20BB
:1011B00000F004F9122000F001F9812000F0FEF89F
:1011C000EF2000F0FBF8D92000F0F8F8F12000F053
:1011D000F5F8DB2000F0F2F8302000F0EFF8A42062
:1011E00000F0ECF8A62000F0E9F8BDE81040AF20D0
:1011F00000F0E4B802464FF480610148FEF7E4BF16
:10120000A0000020F0B5A3B040200024124E8DF8BD
:10121000040001AD671E002006EBC4112B180A5C08
:10122000401C5A708028F9DB04F1B000C0B200F015
:10123000C5F8002000F0C2F8102000F0BFF88123AC
:1012400001AA782105480097FFF71CFA641C082CB6
:10125000E1DB23B0F0BD0000A00000204C00002026
:1012600070477047F0B500223326DFF848C0552597
:10127000C2F1070300210CEBC31400BF01EBC21342
:10128000C35C1F0903F00F0347EA031306EA930741
:1012900003F0330347EA830305EA530703F05503DA
:1012A00047EA43036354491C8029E7DB521C082AA0
:1012B000DEDBF0BDA00000202DE9F0410F008046EC
:1012C0004FF0000620D1124D5FF0000455F82400C5
:1012D000FFF7C8FFFFF796FF4046FFF707F8641CCB
:1012E0000F2CF3DB5FF00D0455F82400FFF7BAFF75
:1012F000FFF788FF4046FEF7F9FF641E002CF3DC81
:10130000002FE1D0761CB6B2BE42DCD3BDE8F0813E
:1013100010000020FFF77ABA30B58FB02821684658
:10132000FEF75AFF14210AA8FEF756FF0121080410
:10133000CDE900100024029402250491CDE9075064
:101340004FF4E01009906846FFF7B6FB08B172B69B
:10135000FEE70F20CDE90A054FF48060CDE90C408F
:1013600002210AA80E94FFF7DBFA002801D072B61A
:10137000FEE70FB030BD7047FEE70907090E0028F1
:1013800004DB00F1E02080F80014704700F00F004B
:1013900000F1E02080F8141D7047FFF73FFAFFF7D7
:1013A000BBFFFFF791FEFFF7ADFEFFF7D5FEFFF79E
:1013B000CBFE00213220FFF77FFFFEE71CB50021A6
:1013C0008DF804108DF80500481E0090022301AA34
:1013D00078210248FFF756F91CBD00004C000020A0
:1013E000010202030405060708090A0B0C0D0E0F83
:1013F00010100000000000000000010203040607B6
:1014000008090000000001020304000000000000C1
:1014100000000000000000000000000000000000CC
:1014200000000000000000000000000000000000BC
:10143000000000000000000080C0E0E0F0F0E0C02C
:10144000000000000000000000000000000000009C
:10145000000000000000000000000000000000008C
:10146000000080808080000000000000000000007C
:10147000000000000000000000000000000000006C
:10148000000000000000000000000000000000005C
:10149000000000000000000000000000000000004C
:1014A00000000000000000000000000000000080BC
:1014B000C0C0E0F0F0F8FEFFFFFFFFFFFFFFFFFFFF
:1014C000FEFEFEFEFEFEFEFEFEFEFEFEFEFCFCFC42
:1014D000FCFCFCFCFCFCFCFCFCFCFCFCFEFEFFFF42
:1014E000FFFFFFFFFF87000000000000000000007A
:1014F00000000000000000000000000000000000EC
:1015000000000000000000000000000000000000DB
:1015100000000000000000000000000000000000CB
:1015200000000000000000303038FCFCFEFFFFFF30
:10153000FFFFFFFFFFFFFFFFFFFFFF0F01000000A6
:10154000193F1F9F9F9F1F1F3F7FFFFFFFFFFFFF51
:10155000FFFF0301010103FFFFFFFFFFFFFFFFFF8D
:10156000FFFFFFFFFFFFFFFEFCF8F0E0C000000000
:10157000000000000000000000000000000000006B
:10158000000000000000000000000000000000005B
:10159000000000000000000000000000000000004B
:1015A000000000000000000C1E0E0707076F7F7F81
:1015B0007F3F1F0F07C7C3E1F1F8F8FCFC7E3E1E1A
:1015C0001F8F87C7E7E3E3F030181C9F9F9F9F9F03
:1015D0009F9F183038787EFFFFFFFFFFFFFFFFFF60
:1015E000FFFFFFFFFFFFFFFFFFFF7FFFEF07070486
:1015F00000000000000000000000000000000000EB
:1016000000000000000000000000000000000000DA
:1016100000000000000000000000000000000000CA
:1016200000000000000000000000000000000000BA
:1016300000F0FCFEFFFFFFFFFFCF87C3E0F0F8FEE6
:10164000FFFFFFFFFFFFFFFFFCFCF8F1F3E3C78F95
:101650008F1F1F3E3C3C7878F9F9F9F9FBFF3F0FEB
:101660000303030303030303010000000000000061
:10167000000000000000000000000000000000006A
:10168000000000000000000000000000000000005A
:10169000000000000000000000000000000000004A
:1016A000000000000000000000000000000000003A
:1016B0001FFFFFFFFFFFFFFFFFFFFFFFFFFFFFFF1A
:1016C000FFFFFFFFFFFFFFFFFFFFFFFFFFFFFFFF2A
:1016D000FFFFFFFEFEFEFCFCFEFFFFFF0F00000011
:1016E00000000000000000000000000000000000FA
:1016F00000000000000000000000000000000000EA
:1017000000000000000000000000000000000000D9
:1017100000000000000000000000000000000000C9
:101720000000000000000000000000000000008039
:10173000C0E0F3FFFFFFFFFFFFFFFFFFFFFFFFFF23
:10174000FFFFFFFFFFFFFFFFFFFFFFFFFFFFFFFFA9
:10175000FFFFFFFFFFFFFFFFFFFFFFFFF8F0E0C00D
:101760008000000040C0C0C0C0C0C0C0C0C0C0C079
:10177000C0E0E0A000000000000000000000000049
:101780000000000000000000000000000000000059
:101790000000000000000000000000000000000049
:1017A0000000000000000000000000000006070725
:1017B000070703030301010101010100000000000C
:1017C0000000000000000001010101010101010110
:1017D0000101010101010303030303070707070FC9
:1017E0000F0F0600000000000101010101010101CD
:1017F00001010101000000000000000000000000E5
:1018000000000000000000000000000000000000D8
:1018100000000000000000000000000000000000C8
:1018200000000000000000000000000000000000B8
:1018300000000000000080C0E0E0F0F0E0400000A8
:101840000000000000000000000000000000000098
:101850000000000000000000000000000000008008
:1018600080808000000000000000000000000000F8
:101870000000000000000000000000000000000068
:101880000000000000000000000000000000000058
:101890000000000000000000000000000000000048
:1018A0000000000000000000000000008080C0E098
:1018B000E0F0F8FCFEFFFFFFFFFFFFFFFFFFFEFE73
:1018C000FEFEFEFEFEFEFEFEFEFEFCFCFCFCFCFC44
:1018D000FCFCFCFCFCFCFCFCFCFEFEFEFFFFFFFF36
:1018E000FFFFFF8700000000000000000000000074
:1018F00000000000000000000000000000000000E8
:1019000000000000000000000000000000000000D7
:1019100000000000000000000000000000000000C7
:101920000000000000303838FCFEFEFFFFFFFFFF24
:10193000FFFFFFFFFFFFFFFF7F03000000001F1FEF
:101940009F9F9F1F1F3F3FFFFFFFFFFFFFFFFF3FC7
:1019500003010101F3FFFFFFFFFFFFFFFFFFFFFF99
:10196000FFFFFFFFFFFEFCF0F0E0C0000000000002
:101970000000000000000000000000000000000067
:101980000000000000000000000000000000000057
:101990000000000000000000000000000000000047
:1019A00000000000001C1E0F0707477F7F7F7F3F5E
:1019B0001F0F87C3E3E1F0F8FCFCFE7E3E1F0F879C
:1019C000C7E3E3F3F0F0F8FEFFFFFF3F3F1F1F9870
:1019D0009898981C1F3F3FFFFFFFFFFFFFFFFFFF8F
:1019E000FFFFFFFFFFFFFF7F7FFFEF870600000085
:1019F00000000000000000000000000000000000E7
:101A000000000000000000000000000000000000D6
:101A100000000000000000000000000000000000C6
:101A2000000000000000000000000000000000C0F6
:101A3000FCFFFFFFFFFFFF8783C1E0F8FCFEFFFF15
:101A4000FFFFFFFFFFFFFFFFFFFFF0E0C0868F1FDC
:101A50001333317178F8F8F9F9F9FF1F070303031D
:101A60000303030303030000000000000000000064
:101A70000000000000000000000000000000000066
:101A80000000000000000000000000000000000056
:101A90000000000000000000000000000000000046
:101AA000000000000000000000000000000000FF37
:101AB000FFFFFFFFFFFFFFFFFFFFFFFFFFFFFFFF36
:101AC000FFFFFFFFFFFFFFFFFFFFFFFFFFFFFFFF26
:101AD000FFFEFEFEFEFFFFFFFFFF03000000000011
:101AE00000000000000000000000000000000000F6
:101AF00000000000000000000000000000000000E6
:101B000000000000000000000000000000000000D5
:101B100000000000000000000000000000000000C5
:101B20000000000000000000000000000000E0FBDA
:101B3000FFFFFFFFFFFFFFFFFFFFFFFFFFFF7F7FB5
:101B40007F7F7F7F7F7F7FFFFFFFFFFFFFFFFFFF25
:101B5000FFFFFFFFFFFFFFFFFFFFFFF8C0000000D8
:101B600000808080808080808080808080C0C040B5
:101B70000000000000000000000000000000000065
:101B80000000000000000000000000000000000055
:101B90000000000000000000000000000000000045
:101BA0000000000000000000000000000007070720
:101BB0000703030301010101000000000000000011
:101BC0000000000000000000000000000000000015
:101BD00001010101010101030303030707030000E1
:101BE00000000101010101010303030303030303D7
:101BF00002000000000000000000000000000000E3
:101C000000000000000000000000000000000000D4
:101C100000000000000000000000000000000000C4
:101C200000000000000000000000000000000000B4
:101C300080C0E0E0F0F8F8F0F08000000000000064
:101C40000000000000000000000000000000000094
:101C5000000000000000808080C0C0C0C0C0C00084
:101C60000000000000000000000000000000000074
:101C70000000000000000000000000000000000064
:101C80000000000000000000000000000000000054
:101C90000000000000000000000000000000000044
:101CA0000000000000008080C0E0E0F0F8F8FEFFD7
:101CB000FFFFFFFFFFFFFF7F7F7F7FFFFFFFFFFF34
:101CC000FFFFFFFFFFFFFFFFFFFFFEFEFEFEFEFE2A
:101CD000FEFEFEFEFFFFFFFFFFFFFFFFFFFFF3E043
:101CE000C0800000000000000000000000000000B4
:101CF00000000000000000000000000000000000E4
:101D000000000000000000000000000000000000D3
:101D100000000000000000000000000000000000C3
:101D20000010183CFEFFFFFFFFFFFFFFFFFFFFFF5C
:101D3000FFFFFF7F7F07000000808C8FCFCFCFCFCA
:101D40008F0F1F1FFFFFFFFFFFFFFFFF03000000BC
:101D5000C0FFFFFFFFFFFFFFFFFFFFFFFFFFFFFFD2
:101D6000FFFFFFFEFCF8F0C0800000000000000054
:101D70000000000000000000000000000000000063
:101D80000000000000000000000000000000000053
:101D90000000000000000000000000000000000043
:101DA00000040E0F070303373F3F3F3F1F0F07831A
:101DB000E1E1F0F8FCFEFE7F3F1F0F87C3E3F1F186
:101DC000F8F8FCFEFFFFFF3F1F0F8FC7C6C4C4C655
:101DD0004F0F0F1F7FFFFFFFFFFFFFFFFFFFFFFF03
:101DE000FFFFFF1F1F1F3B3101010000000000002B
:101DF00000000000000000000000000000000000E3
:101E000000000000000000000000000000000000D2
:101E100000000000000000000000000000000000C2
:101E2000000000000000000000000000FCFEFFFFBA
:101E3000FFFFFFFFE7E3E0F0F8FEFFFFFFFFFFFF1C
:101E4000FFFFFFFFFFFFFFF8F0E0E3C7CD8C8C9CA6
:101E50009CBCFCFCFCFCFEFF7F01000000000000BD
:101E60000000000000000000000000000000000072
:101E70000000000000000000000000000000000062
:101E80000000000000000000000000000000000052
:101E90000000000000000000000000000000000042
:101EA000000000000000000000000000FFFFFFFF36
:101EB000FFFFFFFFFFFFFFFFFFFFFFFFFFFFFFFF32
:101EC000FFFFFFFFFFFFFFFFFFFFFFFFFFFFFFFF22
:101ED000FFFFFFFFFFFFFF7F00000000000000008A
:101EE00000000000000000000000000000000000F2
:101EF00000000000000000000000000000000000E2
:101F000000000000000000000000000000000000D1
:101F100000000000000000000000000000000000C1
:101F2000000000000000000000000000FFFFFFFFB5
:101F3000FFFFFFFF7F7F7F3F3F3F3F3F1F1F1F1F71
:101F40001F1F1F1F1F1F1F1F1F1F1F1F3F3F3F7FE1
:101F50007FFFFFFF7F7F0F0000006060E0E0C0C0F8
:101F6000C0C0C0C0C0C0C0C0000000000000000071
:101F70000000000000000000000000000000000061
:101F80000000000000000000000000000000000051
:101F90000000000000000000000000000000000041
:101FA0000000000000000000000000000103030129
:101FB0000100000000000000000000000000000020
:101FC0000000000000000000000000000000000011
:101FD0000000000000000000000000000000000001
:101FE00001010101010101010100000000000000E8
:101FF00000000000000000000000000000000000E1
:1020000000000000000000000000000000000000D0
:1020100000000000000000000000000000000000C0
:1020200000000000000000000000000000000000B0
:102030008080C0C0C08000000000000000000000E0
:102040000000000000000000000000000000000090
:102050000000000000000080808080800000000000
:102060000000000000000000000000000000000070
:102070000000000000000000000000000000000060
:102080000000000000000000000000000000000050
:102090000000000000000000000000000000000040
:1020A000000000000000000080C0E0E0F0F8FCFF4D
:1020B000FFFFFFFFFFFFFFFEFCFCFCFCFCFCFCFC49
:1020C000FCFCFCFCFCF8F8F8F8F8F8F8F8F8F8F87C
:1020D000FCFCFEFEFEFFFFFFFFFFFFFF8300000092
:1020E00000000000000000000000000000000000F0
:1020F00000000000000000000000000000000000E0
:1021000000000000000000000000000000000000CF
:10211000000000000000000000000000000000407F
:1021200060F0F8F8FCFEFFFFFFFFFFFFFFFFFFFF7F
:10213000FFFFFF03010101017F7F3F3F3F3F3F7FE3
:102140007FFFFFFFFFFFFFFFFF0F01010103FFFF05
:10215000FFFFFFFFFFFFFFFFFFFFFFFFFFFFFEFC93
:10216000F8F0E0C0C08000000000000000000000A7
:10217000000000000000000000000000000000005F
:10218000000000000000000000000000000000004F
:10219000000000000000000000000000000000003F
:1021A000383C1F0F0FDFFFFFFFFFFF7F3F1F0F07B1
:1021B00087C3E1F0F8F8FC7C3E1E0E8FC7C6E0E056
:1021C000F0F9FFFFFF7F3F3F3F1C1818183C3F3FCF
:1021D0007FFFFFFFFFFFFFFFFFFFFFFFFFFFFFFF8F
:1021E000FF7F3F3F63C303020000000000000000C8
:1021F00000000000000000000000000000000000DF
:1022000000000000000000000000000000000000CE
:1022100000000000000000000000000000000000BE
:102220000000000000000000000000E0F0FCFEFFE5
:10223000FFFFFF3F0F0381E0F8FCFFFFFFFFFFFF01
:10224000FFFFFFFFE0C0808E1F3F3373737370F09A
:10225000F0F1F1FBFFFFFFFF0101010101010101AD
:10226000010000000000000000000000000000006D
:10227000000000000000000000000000000000005E
:10228000000000000000000000000000000000004E
:10229000000000000000000000000000000000003E
:1022A0000000000000000000000000FFFFFFFFFF33
:1022B000FFFFFFFFFEFFFFFFFFFFFFFFFFFFFFFF2F
:1022C000FFFFFFFFFFFFFFFFFFFFFEFEFEFCFCFC2A
:1022D000FFFFFFFFFFFF3F010000000000000000C4
:1022E00000000000000000000000000000000000EE
:1022F00000000000000000000000000000000000DE
:1023000000000000000000000000000000000000CD
:1023100000000000000000000000000000000000BD
:10232000000000000000000000000007FFFFFFFFAA
:10233000FFFFFFFFFFFFFFFFFFFF7F7F7F7F7F7FAD
:102340007F7F7F7F7FFFFFFFFFFFFFFFFFFFFFFF1D
:102350007F3F1F0F83C1C0C0C0C0C080808000000D
:10236000000000000000000000000000000000006D
:10237000000000000000000000000000000000005D
:10238000000000000000000000000000000000004D
:10239000000000000000000000000000000000003D
:1023A0000000000000000000000000000307070715
:1023B0000303030101010000000000000000000011
:1023C00000000000000000010303030303010000FC
:1023D00000000000000101010103030303020000EB
:1023E00000000000000000000000000000000000ED
:1023F00000000000000000000000000000000000DD
:1024000000000000000000000000000000000000CC
:1024100000000000000000000000000000000000BC
:1024200000000000000000000000000000000000AC
:10243000000000000000000000000000000000009C
:10244000000000000000000000000000000000008C
:10245000000000000000000000000000000000007C
:10246000000000000000000000000000000000006C
:10247000000000000000000000000000000000005C
:10248000000000000000000000000000000000004C
:10249000000000000000000000000000000000003C
:1024A0000000000000000000000080C0E0F0F8FC28
:1024B000FEFEFEFEF8E0E0E0E0E0E0E0E0E0E0E08C
:1024C000E0E0E0E0E0E0E0C0C0C0C0C0C0C0E0E0EC
:1024D000E0F0F0F8F8F8FCFCFCFC3C000000000028
:1024E00000000000000000000000000000000000EC
:1024F00000000000000000000000000000000000DC
:1025000000000000000000000000000000000000CB
:10251000000000000000000000000000000000803B
:1025200080C0E0F0F0F8FCFCFEFFFFFFFFFFFFFFC4
:10253000FFFF0F070707CFFFFFFFFFFFFFFFFFFFB3
:10254000FFFFFFFFFFFFFFFF0F0F0F0F0FFFFFFF4B
:10255000FFFFFFFFFFFFFFFFFFFFFFFEFCF8F0E0C4
:10256000E0C080000000000000000000000000004B
:10257000000000000000000000000000000000005B
:10258000000000000000000000000000000000004B
:10259000000000000000000000000000000003E355
:1025A000F77F7F7FFFFFFFFFFFFFFF7F3F1F1F0FB3
:1025B00087C3E0E0F0F0F8783C3C1C1C8C80C1E163
:1025C000FFFFFFFFFFFF7F7F606060607C7F7F7F9A
:1025D000FFFFFFFFFFFFFFFFFFFFFFFFFFFFFFFF0B
:1025E000FFFFEFCF860C000000000000000000009D
:1025F00000000000000000000000000000000000DB
:1026000000000000000000000000000000000000CA
:1026100000000000000000000000000000000000BA
:1026200000000000030707070303C1F0F8FCFEFFEA
:10263000FFFF7F1F0703C0F0FCFEFFFFFFFFFFFF50
:10264000FFFFFFFFC380001C3E7E66E6E6E6E0E09B
:10265000E0E3E7E7FFFFFF030303030303030300D4
:102660000000000101000000000000000000000068
:10267000000000000000000000000000000000005A
:10268000000000000000000000000000000000004A
:10269000000000000000000000000000000000003A
:1026A0000000000000000000007FFFFFFFFFFFFFB1
:1026B000FFFFFCFCFEFFFFFFFFFFFFFFFFFFFFFF31
:1026C000FFFFFFFFFFFFFFFFFEFEFCFCFCF8F8F939
:1026D000FFFFFFFFFFFF0F000000000000000000F1
:1026E00000000000000000000000000000000000EA
:1026F00000000000000000000000000000000000DA
:1027000000000000000000000000000000000000C9
:1027100000000000000000000000000000000000B9
:1027200000000000000000000000077FFFFFFFFF27
:10273000FFFFFFFFFFFFFFFFFFFFFFFFFFFFFFFFA9
:10274000FFFFFFFFFFFFFFFFFFFFFFFFFFFFFF7F19
:102750003F1F0F0781C0E060202000000000000044
:102760000000000000000000000000000000000069
:102770000000000000000000000000000000000059
:102780000000000000000000000000000000000049
:102790000000000000000000000000000000000039
:1027A0000000000000000000000000000307070711
:1027B000030301010101010101010000000000000B
:1027C0000101010103070F0F0707030301010000C7
:1027D00000000001010101010000000000000000F4
:1027E00000000000000000000000000000000000E9
:1027F00000000000000000000000000000000000D9
:1028000000000000000000000000000000000000C8
:1028100000000000000000000000000000000000B8
:102820000000000000000000000000000000008028
:10283000C0C0C0C080000000000000000000000018
:102840000000000000000000000000000000000088
:10285000000000000080808080C080000000000038
:102860000000000000000000000000000000000068
:102870000000000000000000000000000000000058
:102880000000000000000000000000000000000048
:102890000000000000000000000000000000000038
:1028A000000000000000000080C0E0F0F8FEFFFF24
:1028B000FFFFFFFFFFFEFCFCFCFCFCFCFCFCFCFC47
:1028C000FCFCFCFCFCFCFCFCFCFCFCFCFCFCFCFC48
:1028D000FCFEFEFFFFFFFFFFFFFFFFC080000000C8
:1028E00000000000000000000000000000000000E8
:1028F00000000000000000000000000000000000D8
:1029000000000000000000000000000000000000C7
:10291000000000000000000000000000000000C0F7
:10292000E0E0F0F8FCFCFEFFFFFFFFFFFFFFFFFF12
:10293000FFFFFF07010101013F3F3F3F1F1F1F3FF7
:102940003F3F7FFFFFFFFFFFFF7F0101010187FF87
:10295000FFFFFFFFFFFFFFFFFFFFFFFFFFFFFEFC8B
:10296000FCF8F0E0C08080000000000000000000E3
:102970000000000000000000000000000000000057
:102980000000000000000000000000000000000047
:102990000000000000000000000000000000000037
:1029A00038391F1F1FBFFFFFFFFFFFFF7F3F1F0FB4
:1029B00087C3E1F0F8F8FCFC7E3E1F0F87C7E3E118
:1029C000F0F8FCFFFF7F3F1F1F9E989898989F1F6D
:1029D0003F3FFFFFFFFFFFFFFFFFFFFFFFFFFFFF87
:1029E0003F3F1F3F310101000000000000000000D8
:1029F00000000000000000000000000000000000D7
:102A000000000000000000000000000000000000C6
:102A100000000000000000000000000000000000B6
:102A2000000000000001010101010101E0F0FCFED5
:102A3000FFFFFFFFBF0F0381E0F8FEFFFFFFFFFF77
:102A4000FFFFFFFFFFF0E0C0878F1B1B3139397894
:102A500078F8F8F9F9FFFFFF00000000000000001F
:102A60000000000000000000000000000000000066
:102A70000000000000000000000000000000000056
:102A80000000000000000000000000000000000046
:102A90000000000000000000000000000000000036
:102AA00000000000000000000080F0FFFFFFFFFFBB
:102AB000FFFFFFFFFFFFFFFFFFFFFFFFFFFFFFFF26
:102AC000FFFFFFFFFFFFFFFFFFFFFFFFFFFEFEFE19
:102AD000FEFFFFFFFFFF7F0F00000000000000006F
:102AE00000000000000000000000000000000000E6
:102AF00000000000000000000000000000000000D6
:102B000000000000000000000000000000000000C5
:102B100000000000000000000000000000000000B5
:102B2000000000000000000000073FFFFFFFFFFF64
:102B3000FFFFFFFFFFFFFFFF7F7F7F7F7F7F7F7FA5
:102B40007F7F7F7F7FFFFFFFFFFFFFFFFFFFFFFF15
:102B50007F3F1F0F07010000000000000000000081
:102B60000000000000000000000000000000000065
:102B70000000000000000000000000000000000055
:102B80000000000000000000000000000000000045
:102B90000000000000000000000000000000000035
:102BA0000000000000000000000000000307070311
:102BB000030101010000000000000000000000000F
:102BC00000000000000000010303030301010000F6
:102BD00000000000000000000000000000000000F5
:102BE00000000000000000000000000000000000E5
:102BF00000000000000000000000000000000000D5
:102C000000000000000000000000000000000000C4
:102C100000000000000000000000000000000000B4
:102C20000000000000000000000000000080C0C0A4
:102C3000C0808000000000000000000000000000D4
:102C40000000000000000000000000000000000084
:102C5000000080C0C0E0E0E0E08000000000000074
:102C60000000000000000000000000000000000064
:102C70000000000000000000000000000000000054
:102C80000000000000000000000000000000000044
:102C90000000000000000000000000000000000034
:102CA00000000000000000000080C0F8FEFFFFFFF1
:102CB000FFFFFFFFFFFEFEFCFCFCFCFCFCFCFCFC41
:102CC000FCFCFCFEFEFEFEFEFEFEFEFEFEFEFEFE2A
:102CD000FFFFFFFFFFFFFFFFFFFFFEF0E0E0C08010
:102CE00000000000000000000000000000000000E4
:102CF00000000000000000000000000000000000D4
:102D000000000000000000000000000000000000C3
:102D100000000000000000000000000000000000B3
:102D200000C0C0E0F0F8FCFEFFFFFFFFFFFFFFFF69
:102D3000FFFFFFFFFFFFFF03010101377F3F3F3F21
:102D40003F1F1F1F3F3F3F7FFFFFFFFFFF010101AD
:102D50000103FFFFFFFFFFFFFFFFFFFFFFFFFFFF7D
:102D6000FFFEFEFCF8F0E0C0800000000000000064
:102D70000000000000000000000000000000000053
:102D80000000000000000000000000000000000043
:102D90000000000000000000000000000000000033
:102DA0000163F37F7F3F7FFFFFFFFFFFFFFFFFFF19
:102DB000FF3F1F0F0F87C3E0F0F8F8FCFE7E1E1FD9
:102DC0008FC7C7E3E3F0F0F83F1F1F8FCFC8C0C025
:102DD000C80E0F1F3FFFFFFFFFFFFFFFFFFFFFFFBB
:102DE000FFFF1F1F1F1C3810000000000000000024
:102DF00000000000000000000000000000000000D3
:102E000000000000000000000000000000000000C2
:102E100000000000000000000000000000000000B2
:102E20000000000000000203030303030307FFFB8D
:102E3000F0F0FCFEFFFFFFFFBF0F0781E0F0FCFE9C
:102E4000FFFFFFFFFFFFFFFFF0E0C0C78F1D193935
:102E500038387C7C3C7CFFFFFFFFF0000000000066
:102E60000000000000000000000000000000000062
:102E70000000000000000000000000000000000052
:102E80000000000000000000000000000000000042
:102E90000000000000000000000000000000000032
:102EA0000000000000000000000000000000FFFF24
:102EB000FFFFFFFFFFFFFFFFFFFFFFFFFFFFFFFF22
:102EC000FFFFFFFFFFFFFFFFFFFFFFFFFFFFFFFF12
:102ED000FEFEFEFEFEFEFFFFFF3F030000000000BF
:102EE00000000000000000000000000000000000E2
:102EF00000000000000000000000000000000000D2
:102F000000000000000000000000000000000000C1
:102F100000000000000000000000000000000000B1
:102F20000000002070E0E0E0F000000000F8FFFF8B
:102F3000FFFFFFFFFFFFFFFFFFFFFFFFFFFFFFFFA1
:102F4000FFFFFFFFFFFFFFFFFFFFFFFFFFFFFFFF91
:102F5000FFFFFFFFFFFFFF1F030000000000000056
:102F60000000000000000000000000000000000061
:102F70000000000000000000000000000000000051
:102F80000000000000000000000000000000000041
:102F90000000000000000000000000000000000031
:102FA000000000000000000100000000070F0F0FEC
:102FB0000F070707030303030101010101000000DC
:102FC0000000000000000000000000000000000100
:102FD00001010303070703000000000000000000D8
:102FE00000000000000000000000000000000000E1
:102FF00000000000000000000000000000000000D1
:1030000000000000000000000000000000000000C0
:1030100000000000000000000000000000000000B0
:1030200000000000000000000000C0C0C0C0C0C020
:103030008080000000000000000000000000000090
:103040000000000000000000000000000000000080
:10305000A0F0F8F8F8F0E0C08000000000000000E8
:103060000000000000000000000000000000000060
:103070000000000000000000000000000000000050
:103080000000000000000000000000000000000040
:103090000000000000000000000000000000000030
:1030A00000000000000000000080C3FFFFFFFFFFE2
:1030B000FFFFFFFFFFFEFEFEFEFEFEFEFEFEFEFE2B
:1030C000FEFEFEFEFEFFFFFFFFFFFFFFFFFFFFFF15
:1030D000FF7F7FFFFFFFFFFFFFFFFEF8F0F0E0C084
:1030E000C0800000000000000000000000000000A0
:1030F00000000000000000000000000000000000D0
:1031000000000000000000000000000000000000BF
:1031100000000000000000000000000000000000AF
:10312000000080E0F0F8FCFEFFFFFFFFFFFFFFFF65
:10313000FFFFFFFFFFFFFFFFFF03010101017F7F93
:103140003F3F3F3F1F1F1F1F1F3F3F7FFFFFFFFCF2
:103150000000000007FFFFFFFFFFFFFFFFFFFFFF73
:10316000FFFFFFFEFEFC38383000000000000000CA
:10317000000000000000000000000000000000004F
:10318000000000000000000000000000000000003F
:10319000000000000000000000000000000000002F
:1031A000060747EF7F7F7FFFFFFFFFFFFFFFFFFF68
:1031B000FFFF7F3F1F0F0787C3E1F0F8F8FCFC7E9D
:1031C0003E1E0F8FC7C7E7E3E3F0F0F8FFFFFFFFF6
:1031D000FF1C0C04C6E7E36363630307070F7F7FED
:1031E0007F7F6F0707070E0C0C0000000000000037
:1031F00000000000000000000000000000000000CF
:1032000000000000000000000000000000000000BE
:1032100000000000000000000000000000000000AE
:103220000000000000000003030303030303030383
:103230000F3CF8F8FCFEFFFFFFFF9F8F87C3E0F015
:10324000FCFEFFFFFFFFFFFFFFFFFFFFFFFFFFFF92
:10325000FFF8F0E0C3E7FEFCFCFCFEFCF8F08000A9
:10326000000000000000000000000000000000005E
:10327000000000000000000000000000000000004E
:10328000000000000000000000000000000000003E
:10329000000000000000000000000000000000002E
:1032A000000000000000000000000000000000001E
:1032B0000000011FFFFFFFFFFFFFFFFFFFFFFFFFFA
:1032C000FFFFFFFFFFFFFFFFFFFFFFFFFFFFFFFF0E
:1032D000FFFFFFFFFFFFFFFFFFFFFFFFFFFFFF00FD
:1032E00000000000000000000000000000000000DE
:1032F00000000000000000000000000000000000CE
:1033000000000000000000000000000000000000BD
:1033100000000000000000000000000020C0C0C04D
:10332000C0C0C0808080808080C0C000000000805D
:10333000C0C0F0FCFFFFFFFFFFFFFFFFFFFFFFFF2D
:10334000FFFFFFFFFFFFFFFFFFFFFFFFFFFFFFFF8D
:10335000FFFFFFFFFFFFFFFFFFFFFFFFFFC3800037
:10336000000000000000000000000000000000005D
:10337000000000000000000000000000000000004D
:10338000000000000000000000000000000000003D
:103390000000000000000000000001010103030321
:1033A000030303030101010101010000000E1F0FCF
:1033B0000F0F0F07070707070703030303030303A1
:1033C00003030303030303030303030101010101D7
:1033D000010101030303030303030707070F0F0F93
:1033E0001E0C0000000000000000000000000000B3
:1033F00000000000000000000000000000000000CD
:1034000000000000000000000000000000000000BC
:1034100000000000000000000000000000000000AC
:10342000000000000000000000000000C0C0C0C09C
:10343000C0C080808000000000000000000000008C
:10344000000000000000000000000000000000007C
:103450000000E0F0F8F8F8F0E0C0800000000000A4
:10346000000000000000000000000000000000005C
:10347000000000000000000000000000000000004C
:10348000000000000000000000000000000000003C
:10349000000000000000000000000000000000002C
:1034A000000000000000000000000080C1FFFFFFDE
:1034B000FFFFFFFFFFFFFFFEFEFEFEFEFEFEFEFE25
:1034C000FEFEFEFEFFFFFFFFFFFFFFFFFFFFFFFF10
:1034D000FFFF7F7F7FFFFFFFFFFFFFFFFEF8F8F09A
:1034E000E0C0C080000000000000000000000000FC
:1034F00000000000000000000000000000000000CC
:1035000000000000000000000000000000000000BB
:1035100000000000000000000000000000000000AB
:1035200000000080C0E0F0F8FCFEFFFFFFFFFFFF9F
:10353000FFFFFFFFFFFFFFFFFFFFFFC100000001D4
:103540003F3F3F3F1F1F9F9F9F9F9F1F3F3FFFFF8B
:10355000FFFE0000000007FFFFFFFFFFFFFFFFFF70
:10356000FFFFFFFFFFFFFEBC1C1830000000000043
:10357000000000000000000000000000000000004B
:10358000000000000000000000000000000000003B
:10359000000000000000000000000000000000002B
:1035A00000000303637F3F3F7FFFFFFFFFFFFFFF3D
:1035B000FFFFFFFF7F3F1F0F87C7E3F1F0F8FCFC21
:1035C000FE7E3E1F0F8FC7E7E3E3F3F0F8F8FEFF40
:1035D000FFFFFFFEFEFE1F0703C1F0F8F8F8F83802
:1035E00018000101230707070F1E0C000000000050
:1035F00000000000000000000000000000000000CB
:1036000000000000000000000000000000000000BA
:1036100000000000000000000000000000000000AA
:103620000000000000000000000101010101010193
:10363000010103077EFCFEFFFFFFFFFFFFC7C3C1C1
:10364000F0F8FCFEFFFFFFFFFFFFFFFFFFFFFFFFA4
:10365000FFFFFFFFF9F8F8FCFFFFFFFFFFFFFFE0B0
:10366000000000000000000000000000000000005A
:10367000000000000000000000000000000000004A
:10368000000000000000000000000000000000003A
:10369000000000000000000000000000000000002A
:1036A000000000000000000000000000000000001A
:1036B0000000000000FFFFFFFFFFFFFFFFFFFFFF15
:1036C000FFFFFFFFFFFFFFFFFFFFFFFFFFFFFFFF0A
:1036D000FFFFFFFFFFFFFFFFFFFFFFFFFFFFFFFFFA
:1036E00000000000000000000000000000000000DA
:1036F00000000000000000000000000000000000CA
:1037000000000000000000000000000000000000B9
:103710000000000000000000000000000000002089
:10372000C0C0C0C0C0C0C0C0C0C0C0C0C0C0000019
:103730000000E0F8FFFFFFFFFFFFFFFFFFFFFFFFBD
:10374000FFFFFFFFFF7F7F7F7F7F7F7F7F7F7F7F09
:103750007FFFFFFFFFFFFFFFFFFFFFFFFFFFFFFBFD
:10376000E000000000000000000000000000000079
:103770000000000000000000000000000000000049
:103780000000000000000000000000000000000039
:103790000000000000000000000000000000000128
:1037A000010101010101010101010101000000000D
:1037B00000030703030303010101010101000000ED
:1037C00000000000000000000000000000000000F9
:1037D00000000000000000010101010303070707CA
:1037E00007070000000000000000000000000000CB
:1037F00000000000000000000000000000000000C9
:1038000000000000000000000000000000000000B8
:1038100000000000000000000000000000000000A8
:103820000000000000000000000000000000000098
:1038300000E0E0C0C0C0C080808000000000000048
:103840000000000000000000000000000000000078
:1038500000000000000080E0F8F8F8F8F8F0E0C0A0
:1038600080000000000000000000000000000000D8
:103870000000000000000000000000000000000048
:103880000000000000000000000000000000000038
:103890000000000000000000000000000000000028
:1038A000000000000000000000000000000080C0D8
:1038B000E0FFFFFFFFFFFFFFFFFFFFFFFEFEFEFE3B
:1038C0007E7E7EFFFFFFFFFFFFFFFFFFFFFFFFFF8B
:1038D000FFFFFFFFFFFF7F7F7F7FFFFFFFFFFFFFF8
:1038E000FFFFFEF8F8F0E0C0C0800000000000001C
:1038F00000000000000000000000000000000000C8
:1039000000000000000000000000000000000000B7
:1039100000000000000000000000000000000000A7
:1039200000000000000080C0E0F0F8FCFEFFFFFF98
:10393000FFFFFFFFFFFFFFFFFFFFFFFFFFFFFFFD99
:10394000000000000F1F9F9F8FCFCFCFCFCF8F0FD3
:103950001F1FFFFFFFFFF000000000FFFFFFFFFF42
:10396000FF7F7F7F7FFFFFFFFFFFFFFEBE3C180052
:103970000000000000000000000000000000000047
:103980000000000000000000000000000000000037
:103990000000000000000000000000000000000027
:1039A0000000000000010121713F1F1F1FFFFFFFEA
:1039B000FFFFFFFFFFFFFFFF3F1F0F07C3E3F1F014
:1039C000F8FCFEFE7F3F1F0F87C3E3F1F1F9F8F823
:1039D000FCFEFFFFFFFFFFFFFEFE3F0F0381E0F84D
:1039E000FCFCFCBC1C08000061030707070E0E006E
:1039F00000000000000000000000000000000000C7
:103A000000000000000000000000000000000000B6
:103A100000000000000000000000000000000000A6
:103A20000000000000000000000000000000000096
:103A3000000000000000003FFEFEFEFFFFFFFFFF52
:103A4000FFE7C3E0F0F8FEFFFFFFFFFFFFFFFFFF10
:103A5000FFFFFFFFFFFFFFFFFFFFFEFEFFFFFFFF78
:103A6000FFFFFFFFC000000000000000000000009A
:103A70000000000000000000000000000000000046
:103A80000000000000000000000000000000000036
:103A90000000000000000000000000000000000026
:103AA0000000000000000000000000000000000016
:103AB00000000000000000007FFFFFFFFFFFFFFF8E
:103AC000FFFFFFFFFFFFFFFFFFFFFFFFFFFFFFFF06
:103AD000FFFFFFFFFFFFFFFFFFFFFFFFFFFFFFFFF6
:103AE000FFFFFFFF1F0000000000000000000000BB
:103AF00000000000000000000000000000000000C6
:103B000000000000000000000000000000000000B5
:103B100000000000000000000000000000000000A5
:103B2000000000000000000000004040C0C0C0C015
:103B3000C0C0C0C0C0C00000001FFFFFFFFFFFFFEC
:103B4000FF7F7F3F3F3F3F3F3F3F3F3F3F3F3F3F45
:103B50003F3F3F7F7F7F7F7FFFFFFFFFFFFFFFFF35
:103B6000FFFFFFFF00000000000000000000000059
:103B70000000000000000000000000000000000045
:103B80000000000000000000000000000000000035
:103B90000000000000000000000000000000000025
:103BA0000000000000000000000002020303030305
:103BB00001010101010000000000000001010100FD
:103BC00000000000000000000000000000000000F5
:103BD00000000000000000000000000101010303DC
:103BE00007070701000000000000000000000000BF
:103BF00000000000000000000000000000000000C5
:103C000000000000000000000000000000000000B4
:103C100000000000000000000000000000000000A4
:103C20000000000000000000000000000000000094
:103C30000000000080808080808000000000000084
:103C40000000000000000000000000000000000074
:103C50000000000000000000000000C0C0E0C080C4
:103C60000000000000000000000000000000000054
:103C70000000000000000000000000000000000044
:103C80000000000000000000000000000000000034
:103C90000000000000000000000000000000000024
:103CA0000000000000000000000000000000000014
:103CB0000000008083FFFFFFFFFFFFFFFEFEFEFC12
:103CC000FCFCF8FCFCFCFCFCFCFCFCFCFCFCFCFC38
:103CD000FCFCFCFCFCFCFCFCFCFEFFFFFFFFFFFF10
:103CE000FFFEFCF8F0E0C080800000000000000053
:103CF00000000000000000000000000000000000C4
:103D000000000000000000000000000000000000B3
:103D100000000000000000000000000000000000A3
:103D2000000000000000000000008080C0E0F0F80B
:103D3000FCFEFFFFFFFFFFFFFFFFFFFFFFFFFFFF97
:103D4000FFFF0301010103FFFF7F7F7F7F3F3F3FB5
:103D50003F7F7FFFFFFFFFFFFB0101010103FFFF2B
:103D6000FFFFFFFFFFFFFFFFFFFFFEFCFCF8F0E09F
:103D7000E0800000000000000000000000000000E3
:103D80000000000000000000000000000000000033
:103D90000000000000000000000000000000000023
:103DA000000000000000000002034363333F3F3F78
:103DB000FFFFFFFFFFFFFFFFFFFFFFFFFF7F3F1F33
:103DC0008F87C3E0F0F0F8F8FC7C3E1E1E8ECFC754
:103DD000C6E0E0F0F9FFFFFFFFFCF8F8F8FC7F0F0A
:103DE0000703E3F1F1F1F17131010303070F1F3C08
:103DF0003000000000000000000000000000000093
:103E000000000000000000000000000000000000B2
:103E100000000000000000000000000000000000A2
:103E20000000000000000000000000000000000092
:103E3000010101010101010101FFFFF9F0F8FCFEA0
:103E4000FFFFFFFF1F0F83C1E0F8FCFEFFFFFFFF36
:103E5000FFFFFFFFFFFFFFFFFFFFFFFFFFFDFCFC7A
:103E6000FEFFFFFFFFFF1F0000000000000000003A
:103E70000000000000000000000000000000000042
:103E80000000000000000000000000000000000032
:103E90000000000000000000000000000000000022
:103EA0000000000000000000000000000000000012
:103EB0000000000000000000001FFFFFFFFFFFFFE9
:103EC000FFFFFFFFFFFFFFFFFFFFFFFFFFFFFFFF02
:103ED000FFFFFFFFFFFFFFFFFFFFFFFFFFFFFFFFF2
:103EE000FFFFFFFFFF3F0000000000000000000098
:103EF00000000000000000000000000000000000C2
:103F000000000000000000000000000000000000B1
:103F100000000000000000000000000000000000A1
:103F20000000000000000000000000000000000091
:103F30000000000000000060E0E0C0C1070F1F3F6C
:103F40007FFFFFFFFFFFFFFFFF7F7F7F7F3F3F3F41
:103F50003F3F7F7F7F7F7F7FFFFFFFFFFFFFFFFFF1
:103F6000FFFFFFFF0F000000000000000000000046
:103F70000000000000000000000000000000000041
:103F80000000000000000000000000000000000031
:103F90000000000000000000000000000000000021
:103FA0000000000000000000000000000000000011
:103FB00000000000000000010101010000000000FD
:103FC00000000101030303010000000000000000E5
:103FD00000000000000000000000000101010303D8
:103FE00007070703000000000000000000000000B9
:103FF00000000000000000000000000000000000C1
:1040000000000000000000000000000000000000B0
:1040100000000000000000000000000000000000A0
:104020000000000000000000000000000000000090
:104030000000000000000000000000000000000080
:104040000000000000000000000000000000000070
:104050000000000000000000000000000000000060
:104060000000000000000000000000000000000050
:104070000000000000000000000000000000000040
:104080000000000000000000000000000000000030
:104090000000000000000000000000000000000020
:1040A0000000000000000000000000000000000010
:1040B0000000000000009EFEFEFEFEFEFCFCF8F884
:1040C000F0F0F0E0E0E0E0E0E0E0E0F0F0F0F0F070
:1040D000F0F0F0F0F0F0F0F0E0E0E0F0FCFEFFFFD8
:1040E000FEFEFCF8F0E08000000000000000000090
:1040F00000000000000000000000000000000000C0
:1041000000000000000000000000000000000000AF
:10411000000000000000000000000000000000009F
:104120000000000000000000000000000080C0E06F
:10413000F0F8FCFCFEFFFFFFFFFFFFFFFFFFFFFFAC
:10414000FFFFFFFF070707070FFFFFFFFFFFFFFF4F
:10415000FFFFFFFFFFFFFFFFFFFF0707030707FF4B
:10416000FFFFFFFFFFFFFFFFFFFEFCF8F8F0E0E0BE
:10417000C0800000000000000000000000000000FF
:10418000000000000000000000000000000000002F
:10419000000000000000000000000000000000001F
:1041A000000000000000000000000603E3637F3F02
:1041B0003F7FFFFFFFFFFFFFFFFFFFFFFFFFFF7FCF
:1041C0003F1F1F8FC0C0E0E0F0F1F9F9783C3C1CC4
:1041D0001C9C9C88C0C1E3FFFFFFF8F0F0F0F8FFE3
:1041E0003F0F0F87C7E7E3E3E3E36707070F1F7F8F
:1041F00073610100000000000000000000000000EA
:1042000000000000000000000000000000000000AE
:10421000000000000000000000000000000000009E
:10422000000000000000000000000000000000008E
:10423000000101010101010101E3FFFFFBF0F8FCB6
:10424000FEFFFFFF7F1F0F87C3E1F0F8FCFEFEFFBC
:10425000FFFFFFFFFFFFFFFFFFFFFFFFFFFFFFF974
:10426000F8F8FCFFFFFFFF3F010000000000000026
:10427000000000000000000000000000000000003E
:10428000000000000000000000000000000000002E
:10429000000000000000000000000000000000001E
:1042A000000000000000000000000000000000000E
:1042B000000000000000000000003FFFFFFFFFFFC4
:1042C000FFFFFFFFFFFFFFFFFFFFFFFFFFFFFFFFFE
:1042D000FFFFFFFFFFFFFFFFFFFFFFFFFFFFFFFFEE
:1042E000FFFFFFFFFFFF7F00000000000000000055
:1042F00000000000000000000000000000000000BE
:1043000000000000000000000000000000000000AD
:10431000000000000000000000000000000000009D
:10432000000000000000000000000000000000008D
:1043300000000000000000000000000001070F1F47
:104340003F7F7FFFFFFFFFFFFFFFFFFFFFFFFFFF3D
:10435000FF7F7F7F7FFFFFFFFFFFFFFFFFFFFFFF6D
:10436000FFFFFFFF7F0700000000000000000000CB
:10437000000000000000000000000000000000003D
:10438000000000000000000000000000000000002D
:10439000000000000000000000000000000000001D
:1043A000000000000000000000000000000000000D
:1043B00000000000000000000000000000000000FD
:1043C00000000000010103030303030100000000DB
:1043D00000000000000000000000000000000101DB
:1043E00003030301000000000000000000000000C3
:1043F00000000000000000000000000000000000BD
:1044000000000000000000000000000000000000AC
:10441000000000000000000000000000000000009C
:10442000000000000000000000000000000000008C
:10443000000000000000808080800000000000007C
:10444000000000000000000000000000000000006C
:1044500000000000000000000000000000808080DC
:1044600080000000000000000000000000000000CC
:10447000000000000000000000000000000000003C
:10448000000000000000000000000000000000002C
:10449000000000000000000000000000000000001C
:1044A000000000000000000000000000000000000C
:1044B0000000000080C0FFFFFFFFFFFFFFFEFEFCCB
:1044C000FCF8F8F8F8F8F8F8F8F8F8F8F8F8F8F868
:1044D000F8F8F8F8F8F8F8F8F8F8F8FCFFFFFFFF3C
:1044E000FFFFFEFCF0E08000000000000000000084
:1044F00000000000000000000000000000000000BC
:1045000000000000000000000000000000000000AB
:10451000000000000000000000000000000000009B
:10452000000000000000000000008080C0E0F0F803
:10453000FCFCFEFFFFFFFFFFFFFFFFFFFFFFFFFF92
:10454000FFFF0703010303FFFFFFFFFFFF7F7F7FE5
:104550007F7FFFFFFFFFFFFF0301010303FFFFFF5B
:10456000FFFFFFFFFFFFFFFFFFFEFCF8F8F0E0C0DA
:10457000808000000000000000000000000000003B
:10458000000000000000000000000000000000002B
:10459000000000000000000000000000000000001B
:1045A000000000000000000000030101333F3F3F16
:1045B000FFFFFFFFFFFFFFFFFFFFFFFF7F3F3F1FEB
:1045C0008F8FC6E0E0F0F0F9F8787C3C1C1C9E8EE2
:1045D0008CCCC0E0E1FFFFFFFEF8F8F8F8FF1F0FFA
:1045E00007C7E3E3F3F3F3632303070F1F3F3B71B5
:1045F0002101000000000000000000000000000099
:1046000000000000000000000000000000000000AA
:10461000000000000000000000000000000000009A
:10462000000000000000000000000000000000008A
:104630000000000000000000FFFFFBF8F8FCFEFF98
:10464000FFFFFF1F0F87C3E1F0F8FCFEFEFFFFFF37
:10465000FFFFFFFFFFFFFFFFFFFFFFFFF9F8F8FC81
:10466000FFFFFFFF3F0F00000000010000000000FF
:10467000000000000000000000000000000000003A
:10468000000000000000000000000000000000002A
:10469000000000000000000000000000000000001A
:1046A000000000000000000000000000000000000A
:1046B00000000000000000000F7FFFFFFFFFFFFF72
:1046C000FFFFFFFFFFFFFFFFFFFFFFFFFFFFFFFFFA
:1046D000FFFFFFFFFFFFFFFFFFFFFFFFFFFFFFFFEA
:1046E000FFFFFFFFFFF000000000000000000000DF
:1046F00000000000000000000000000000000000BA
:1047000000000000000000000000000000000000A9
:104710000000000000000000000000000000000099
:104720000000000000000000000000000000000089
:104730000000000000000000000001070F1F3F7F85
:10474000FFFFFFFFFFFFFFFFFFFFFFFF7F7F7F7F79
:104750007F7F7F7F7FFFFFFFFFFFFFFFFFFFFFFFE9
:10476000FFFFFFFFFF7F07000000000000000000C8
:104770000000000000000000000000000000000039
:104780000000000000000000000000000000000029
:104790000000000000000000000000000000000019
:1047A0000000000000000000000000000000000009
:1047B00000000000000000000000000000000000F9
:1047C00000000101030303030100000000000000DA
:1047D00000000000000000000000010101010303CF
:1047E00007070703010000000000000000000000B0
:1047F00000000000000000000000000000000000B9
:1048000000000000000000000000000000000000A8
:104810000000000000000000000000000000000098
:104820000000000000000000000000000000000088
:1048300000000000000000C0F0F0F0F0E0C0C08018
:104840000000000000000000000000000000000068
:10485000000000000000000000000000008080C098
:10486000C0E0C08000000000000000000000000068
:104870000000000000000000000000000000000038
:104880000000000000000000000000000000000028
:104890000000000000000000000000000000000018
:1048A0000000000000000000000000000000000008
:1048B00080C0E0E0F0F8FFFFFFFFFFFFFFFFFFFF1A
:1048C000FFFFFEFEFEFEFEFEFEFEFEFEFEFEFEFE06
:1048D000FEFEFEFEFEFEFEFEFEFEFEFFFFFFFFFFF3
:1048E000FFFFFFFFFFF8C080000000000000000095
:1048F00000000000000000000000000000000000B8
:1049000000000000000000000000000000000000A7
:104910000000000000000000000000000000000097
:104920000000000000000000607078F8FCFEFFFF4F
:10493000FFFFFFFFFFFFFFFFFFFFFFFFFFFFFF0185
:10494000000000017F7F7F3F3F3F3F3F3F3F3F7F72
:104950007FFFFFFFFF0301010103FFFFFFFFFFFFD9
:10496000FFFFFFFFFFFFFFFFFFFEFCF8F0E0C0C00E
:104970000000000000000000000000000000000037
:104980000000000000000000000000000000000027
:104990000000000000000000000000000000000017
:1049A0000000000000000000001C1E0F0F0F3F3F22
:1049B0007F7F7F7F7F7FFFFF7F3F1F1F8FC7E3E0EA
:1049C000F0F8F8FCFC7E3E1E0E8FC7C7C7E3E0F090
:1049D000F0FDFFFFFF1C0000C0F0F1F9F9F93939D3
:1049E000010183C7FFFFFFFFFF3F3F3F3F7B3101D7
:1049F00001000000000000000000000000000000B6
:104A000000000000000000000000000000000000A6
:104A10000000000000000000000000000000000096
:104A20000000000000000000000000000000000086
:104A3000000000000000FFFCF8FCFEFFFFFFFFFF8E
:104A40009F8783E1F0F8FCFEFFFFFFFFFFFFFFFF02
:104A5000FFFFFFFFFFF8F0F0F3FFFFFFFFFFFEFC9B
:104A6000F8F801030101010101010000000000004C
:104A70000000000000000000000000000000000036
:104A80000000000000000000000000000000000026
:104A90000000000000000000000000000000000016
:104AA0000000000000000000000000000000000006
:104AB0000000000000000FFFFFFFFFFFFFFFFFFFF0
:104AC000FFFFFFFFFFFFFFFFFFFFFFFFFFFFFFFFF6
:104AD000FFFFFFFFFFFFFFFFFFFFFFFFFFFFFFFFE6
:104AE000FFFF0000000000000000000000000000C8
:104AF00000000000000000000000000000000000B6
:104B000000000000000000000000000000000000A5
:104B10000000000000000000000000000000000095
:104B20000000000000000000000000000000000085
:104B300000000000000000010FFFFFFFFFFFFFFF6C
:104B40007F7F7F7F3F3F3F3F3F3F3F3F3F7F7F7FB5
:104B50007F7F7F7FFFFFFFFFFFFFFFFFFFFFFFFF65
:104B6000FFFFFC80000000000000000000000000CB
:104B70000000000000000000000000000000000035
:104B80000000000000000000000000000000000025
:104B90000000000000000000000000000000000015
:104BA0000000000000000000000000000000000005
:104BB00000000000000000000001010101000000F1
:104BC00000000000000000000000000000000000E5
:104BD00000000000000000000101010103030303C5
:104BE00007070703000000000000000000000000AD
:104BF00000000000000000000000000000000000B5
:104C000000000000000000000000000000000000A4
:104C10000000000000000000000000000000000094
:104C20000000000000000000000000000000000084
:104C3000000000000000000080C0C0E0E0E0E0C034
:104C40000000000000000000000000000000000064
:104C50000000000000000000000000000000000054
:104C60000000008080000000000000000000000044
:104C70000000000000000000000000000000000034
:104C80000000000000000000000000000000000024
:104C90000000000000000000000000000000000014
:104CA0000000000000000000000000000000008084
:104CB000C0C0E0E0F0F8FEFFFFFFFFFFFFFFFFFFD7
:104CC000FEFEFCFCFCFCFCFCFCFCFCFCFCFCFCFC20
:104CD000FCFCFCFCF8F8F8F8F8F8FCFCFCFEFEFF25
:104CE000FFFFFFFFFF8F000000000000000000003A
:104CF00000000000000000000000000000000000B4
:104D000000000000000000000000000000000000A3
:104D10000000000000000000000000000000000093
:104D200000000000000000303038FCFCFEFFFFFFF8
:104D3000FFFFFFFFFFFFFFFFFFFFFF0F010000006E
:104D4000193F1F9F9F9F1F3F3F7FFFFFFFFFFFFFF9
:104D5000FFFF0303010303FFFFFFFFFFFFFFFFFF51
:104D6000FFFFFFFFFFFFFFFEFCF8F0E0C080000048
:104D70000000000000000000000000000000000033
:104D80000000000000000000000000000000000023
:104D90000000000000000000000000000000000013
:104DA000000000000000000C1E0E0707476F7F7F09
:104DB0007F3F1F0F87C7C3E1F1F8F8FCFC7E3E1F61
:104DC0000F8FC7C7E7E3F3F0F0F8FEFFFFFF7F3F69
:104DD0003F1F989098981E3F3F7FFFFFFFFFFFFF08
:104DE000FFFFFFFFFFFFFFFFFF7F7FFFEF4707048E
:104DF00000000000000000000000000000000000B3
:104E000000000000000000000000000000000000A2
:104E10000000000000000000000000000000000092
:104E20000000000000000000000000000000000082
:104E300000F0FCFEFFFFFFFFFFCFC7C1E0F0FCFE6C
:104E4000FFFFFFFFFFFFFFFFFFFFFFFFFFF0E0C0DF
:104E50008E9F1F3333337178F8F8F9F9FBFF3F0F5A
:104E60000303030303030303020000000000000028
:104E70000000000000000000000000000000000032
:104E80000000000000000000000000000000000022
:104E90000000000000000000000000000000000012
:104EA0000000000000000000000000000000000002
:104EB0000F7FFFFFFFFFFFFFFFFFFFFFFFFFFFFF72
:104EC000FFFFFFFFFFFFFFFFFFFFFFFFFFFFFFFFF2
:104ED000FFFFFFFFFEFEFEFEFFFFFFFF07000000DB
:104EE00000000000000000000000000000000000C2
:104EF00000000000000000000000000000000000B2
:104F000000000000000000000000000000000000A1
:104F10000000000000000000000000000000000091
:104F2000000000000000000000000000000080C041
:104F3000E0F0F9FFFFFFFFFFFFFFFFFFFFFFFFFFB5
:104F4000FFFFFFFFFFFFFFFFFFFFFFFFFFFFFFFF71
:104F5000FFFFFFFFFFFFFFFFFFFFFFFFFCF0E0C0D1
:104F6000800000000060E0E0E0E0E0F0F0F8F870C1
:104F70006060200000000000000000000000000051
:104F80000000000000000000000000000000000021
:104F90000000000000000000000000000000000011
:104FA00000000000000000000000000000020307F5
:104FB00003030301010101000000000000000000E4
:104FC00000000000000000000000000000000000E1
:104FD00000000101010101010101030303030707AF
:104FE00007070600000000000000000000000000AD
:104FF00000000000000000000000000000000000B1
:105000000000000000000000000000002C5000081C
:10501000000000204C000000280100087850000823
:105020004C000020B40A0000440100080100000008
:10503000100000000000000000127A000A140008AE
:105040000A1800080A1C00080A2000080A240008A0
:105050000A2800080A2C00080A3000080A34000850
:105060000A3800080A3C00080A4000080A44000800
:085070000A4800080A4C000880
:04000005080000ED02
:00000001FF
